{
  "contractName": "exerciseOne",
  "abi": [
    {
      "inputs": [
        {
          "internalType": "int256",
          "name": "x",
          "type": "int256"
        }
      ],
      "name": "add",
      "outputs": [
        {
          "internalType": "int256",
          "name": "",
          "type": "int256"
        }
      ],
      "stateMutability": "nonpayable",
      "type": "function"
    },
    {
      "inputs": [
        {
          "internalType": "int256",
          "name": "x",
          "type": "int256"
        }
      ],
      "name": "sub",
      "outputs": [
        {
          "internalType": "int256",
          "name": "",
          "type": "int256"
        }
      ],
      "stateMutability": "nonpayable",
      "type": "function"
    },
    {
      "inputs": [],
      "name": "returnValue",
      "outputs": [
        {
          "internalType": "int256",
          "name": "",
          "type": "int256"
        }
      ],
      "stateMutability": "view",
      "type": "function",
      "constant": true
    }
  ],
  "bytecode": "0x60806040526000805534801561001457600080fd5b50610334806100246000396000f3fe608060405234801561001057600080fd5b50600436106100415760003560e01c806387db03b714610046578063990c8f7914610076578063fa3bd6c514610094575b600080fd5b610060600480360381019061005b9190610150565b6100c4565b60405161006d919061018c565b60405180910390f35b61007e6100e8565b60405161008b919061018c565b60405180910390f35b6100ae60048036038101906100a99190610150565b6100f1565b6040516100bb919061018c565b60405180910390f35b6000816000808282546100d791906101d6565b925050819055506000549050919050565b60008054905090565b600081600080828254610104919061026a565b925050819055506000549050919050565b600080fd5b6000819050919050565b61012d8161011a565b811461013857600080fd5b50565b60008135905061014a81610124565b92915050565b60006020828403121561016657610165610115565b5b60006101748482850161013b565b91505092915050565b6101868161011a565b82525050565b60006020820190506101a1600083018461017d565b92915050565b7f4e487b7100000000000000000000000000000000000000000000000000000000600052601160045260246000fd5b60006101e18261011a565b91506101ec8361011a565b9250817f7fffffffffffffffffffffffffffffffffffffffffffffffffffffffffffffff03831360008312151615610227576102266101a7565b5b817f800000000000000000000000000000000000000000000000000000000000000003831260008312161561025f5761025e6101a7565b5b828201905092915050565b60006102758261011a565b91506102808361011a565b9250827f8000000000000000000000000000000000000000000000000000000000000000018212600084121516156102bb576102ba6101a7565b5b827f7fffffffffffffffffffffffffffffffffffffffffffffffffffffffffffffff0182136000841216156102f3576102f26101a7565b5b82820390509291505056fea2646970667358221220594a79fe0c5133eef1e8edd8723ef6086cfeec9d7b40b92692045e451a83f89964736f6c634300080b0033",
  "immutableReferences": {},
  "source": "//SPDX-License-Identifier: UNLICENSED\r\npragma solidity ^0.8.11;\r\n\r\n/*Queremos crear un smart contract que nos funciones como contador. La idea es que tenga \r\ndos funciones, una para sumar y la otra para restar. Sumado a eso tenemos que poder acceder \r\nde alguna forma al valor actual del contador. */\r\n\r\ncontract exerciseOne {\r\n    int256 counter = 0;\r\n\r\n    function add(int256 x) public returns(int256){\r\n        counter += x;\r\n        return counter;\r\n    }\r\n\r\n    function sub(int256 x) public returns(int256){\r\n        counter -= x;\r\n        return counter;\r\n    }\r\n\r\n    function returnValue() public view returns(int256){\r\n        return counter;\r\n    }\r\n}",
  "sourcePath": "C:\\Users\\Felder\\Desktop\\proyectos\\solidityTests\\contracts\\exerciseOne.sol",
  "compiler": {
    "name": "solc",
    "version": "0.8.11+commit.d7f03943.Emscripten.clang"
  },
  "schemaVersion": "3.4.4",
  "updatedAt": "2022-04-15T23:50:18.143Z",
  "networkType": "ethereum",
  "devdoc": {
    "kind": "dev",
    "methods": {},
    "version": 1
  },
  "userdoc": {
    "kind": "user",
    "methods": {},
    "version": 1
  }
}