{
  "contractName": "exerciseTwo",
  "abi": [
    {
      "inputs": [
        {
          "internalType": "uint256",
          "name": "value",
          "type": "uint256"
        }
      ],
      "name": "addValue",
      "outputs": [],
      "stateMutability": "nonpayable",
      "type": "function"
    },
    {
      "inputs": [],
      "name": "seeArray",
      "outputs": [
        {
          "internalType": "uint256[]",
          "name": "",
          "type": "uint256[]"
        }
      ],
      "stateMutability": "view",
      "type": "function",
      "constant": true
    }
  ],
  "bytecode": "0x608060405234801561001057600080fd5b50610277806100206000396000f3fe608060405234801561001057600080fd5b50600436106100365760003560e01c8063453e36951461003b5780635b9af12b14610059575b600080fd5b610043610075565b60405161005091906101c1565b60405180910390f35b610073600480360381019061006e9190610214565b6100cd565b005b606060008054806020026020016040519081016040528092919081815260200182805480156100c357602002820191906000526020600020905b8154815260200190600101908083116100af575b5050505050905090565b600081908060018154018082558091505060019003906000526020600020016000909190919091505550565b600081519050919050565b600082825260208201905092915050565b6000819050602082019050919050565b6000819050919050565b61013881610125565b82525050565b600061014a838361012f565b60208301905092915050565b6000602082019050919050565b600061016e826100f9565b6101788185610104565b935061018383610115565b8060005b838110156101b457815161019b888261013e565b97506101a683610156565b925050600181019050610187565b5085935050505092915050565b600060208201905081810360008301526101db8184610163565b905092915050565b600080fd5b6101f181610125565b81146101fc57600080fd5b50565b60008135905061020e816101e8565b92915050565b60006020828403121561022a576102296101e3565b5b6000610238848285016101ff565b9150509291505056fea26469706673582212202cfcba759e3fbe3037cc6452e8bec53fa5431fe7cf85ec9fe91aa58cb5acd6d164736f6c634300080b0033",
  "immutableReferences": {},
  "source": "//SPDX-License-Identifier: UNLICENSED\r\npragma solidity ^0.8.11;\r\n\r\n/*Queremos crear un smart contract que nos de la posibilidad de almacenar nmeros. \r\nPara eso queremos crear una funcin a la cual nosotros le pasemos un nmero y agregue \r\nese nmero a un array. La idea es que despus podamos consultar ese array para ver \r\nque nmeros almacenamos */\r\n\r\ncontract exerciseTwo {\r\n    uint256[] arr;\r\n\r\n    function addValue(uint256 value) public {\r\n        arr.push(value);\r\n    }\r\n\r\n    function seeArray() public view returns(uint256[] memory){\r\n        return arr;\r\n    }\r\n\r\n}",
  "sourcePath": "C:\\Users\\Felder\\Desktop\\proyectos\\solidityTests\\contracts\\exerciseTwo.sol",
  "compiler": {
    "name": "solc",
    "version": "0.8.11+commit.d7f03943.Emscripten.clang"
  },
  "schemaVersion": "3.4.4",
  "updatedAt": "2022-04-15T23:50:18.147Z",
  "networkType": "ethereum",
  "devdoc": {
    "kind": "dev",
    "methods": {},
    "version": 1
  },
  "userdoc": {
    "kind": "user",
    "methods": {},
    "version": 1
  }
}