{
  "contractName": "testContract",
  "abi": [
    {
      "inputs": [
        {
          "internalType": "uint256",
          "name": "x",
          "type": "uint256"
        }
      ],
      "name": "double",
      "outputs": [
        {
          "internalType": "uint256",
          "name": "",
          "type": "uint256"
        }
      ],
      "stateMutability": "pure",
      "type": "function",
      "constant": true
    }
  ],
  "bytecode": "0x608060405234801561001057600080fd5b50610242806100206000396000f3fe608060405234801561001057600080fd5b506004361061002b5760003560e01c8063eee9720614610030575b600080fd5b61004a600480360381019061004591906100cc565b610060565b6040516100579190610108565b60405180910390f35b60008160006002826100729190610152565b1461007c57600080fd5b60028361008991906101b2565b915050919050565b600080fd5b6000819050919050565b6100a981610096565b81146100b457600080fd5b50565b6000813590506100c6816100a0565b92915050565b6000602082840312156100e2576100e1610091565b5b60006100f0848285016100b7565b91505092915050565b61010281610096565b82525050565b600060208201905061011d60008301846100f9565b92915050565b7f4e487b7100000000000000000000000000000000000000000000000000000000600052601260045260246000fd5b600061015d82610096565b915061016883610096565b92508261017857610177610123565b5b828206905092915050565b7f4e487b7100000000000000000000000000000000000000000000000000000000600052601160045260246000fd5b60006101bd82610096565b91506101c883610096565b9250817fffffffffffffffffffffffffffffffffffffffffffffffffffffffffffffffff048311821515161561020157610200610183565b5b82820290509291505056fea264697066735822122054c58c66305f43c60889752dd1c91890419c0394673879836fa693aaea2b480664736f6c634300080b0033",
  "immutableReferences": {},
  "source": "// SPDX-License-Identifier: MIT\r\npragma solidity ^0.8.11;\r\n\r\ncontract testContract {\r\n    uint stateVariable; // <-- this is a state variable.\r\n\r\n    function double(uint x) public pure checkOdds(x) returns (uint){\r\n        return x*2;\r\n    }   \r\n\r\n    modifier checkOdds(uint x){\r\n        require(x % 2 == 0);\r\n        _;\r\n    }\r\n\r\n}",
  "sourcePath": "C:\\Users\\Felder\\Desktop\\proyectos\\solidityTests\\contracts\\testContract.sol",
  "compiler": {
    "name": "solc",
    "version": "0.8.11+commit.d7f03943.Emscripten.clang"
  },
  "schemaVersion": "3.4.4",
  "updatedAt": "2022-04-15T23:50:18.139Z",
  "networkType": "ethereum",
  "devdoc": {
    "kind": "dev",
    "methods": {},
    "version": 1
  },
  "userdoc": {
    "kind": "user",
    "methods": {},
    "version": 1
  }
}